{
  "_format": "hh-sol-artifact-1",
  "contractName": "JualahVault",
  "sourceName": "contracts/JualahVault.sol",
  "abi": [
    {
      "inputs": [
        {
          "internalType": "address",
          "name": "_adminSigner",
          "type": "address"
        },
        {
          "internalType": "address",
          "name": "_rewardToken",
          "type": "address"
        },
        {
          "internalType": "address",
          "name": "_initialOwner",
          "type": "address"
        }
      ],
      "stateMutability": "nonpayable",
      "type": "constructor"
    },
    {
      "inputs": [],
      "name": "ECDSAInvalidSignature",
      "type": "error"
    },
    {
      "inputs": [
        {
          "internalType": "uint256",
          "name": "length",
          "type": "uint256"
        }
      ],
      "name": "ECDSAInvalidSignatureLength",
      "type": "error"
    },
    {
      "inputs": [
        {
          "internalType": "bytes32",
          "name": "s",
          "type": "bytes32"
        }
      ],
      "name": "ECDSAInvalidSignatureS",
      "type": "error"
    },
    {
      "inputs": [
        {
          "internalType": "address",
          "name": "owner",
          "type": "address"
        }
      ],
      "name": "OwnableInvalidOwner",
      "type": "error"
    },
    {
      "inputs": [
        {
          "internalType": "address",
          "name": "account",
          "type": "address"
        }
      ],
      "name": "OwnableUnauthorizedAccount",
      "type": "error"
    },
    {
      "inputs": [],
      "name": "ReentrancyGuardReentrantCall",
      "type": "error"
    },
    {
      "anonymous": false,
      "inputs": [
        {
          "indexed": true,
          "internalType": "address",
          "name": "oldSigner",
          "type": "address"
        },
        {
          "indexed": true,
          "internalType": "address",
          "name": "newSigner",
          "type": "address"
        }
      ],
      "name": "AdminSignerUpdated",
      "type": "event"
    },
    {
      "anonymous": false,
      "inputs": [
        {
          "indexed": true,
          "internalType": "address",
          "name": "previousOwner",
          "type": "address"
        },
        {
          "indexed": true,
          "internalType": "address",
          "name": "newOwner",
          "type": "address"
        }
      ],
      "name": "OwnershipTransferred",
      "type": "event"
    },
    {
      "anonymous": false,
      "inputs": [
        {
          "indexed": true,
          "internalType": "address",
          "name": "user",
          "type": "address"
        },
        {
          "indexed": false,
          "internalType": "string",
          "name": "levelId",
          "type": "string"
        },
        {
          "indexed": false,
          "internalType": "uint256",
          "name": "rewardAmount",
          "type": "uint256"
        },
        {
          "indexed": true,
          "internalType": "bytes32",
          "name": "nonce",
          "type": "bytes32"
        }
      ],
      "name": "RewardClaimed",
      "type": "event"
    },
    {
      "inputs": [],
      "name": "adminSigner",
      "outputs": [
        {
          "internalType": "address",
          "name": "",
          "type": "address"
        }
      ],
      "stateMutability": "view",
      "type": "function"
    },
    {
      "inputs": [
        {
          "internalType": "string",
          "name": "levelId",
          "type": "string"
        },
        {
          "internalType": "uint256",
          "name": "rewardAmount",
          "type": "uint256"
        },
        {
          "internalType": "bytes32",
          "name": "nonce",
          "type": "bytes32"
        },
        {
          "internalType": "bytes",
          "name": "signature",
          "type": "bytes"
        }
      ],
      "name": "claimReward",
      "outputs": [],
      "stateMutability": "nonpayable",
      "type": "function"
    },
    {
      "inputs": [],
      "name": "owner",
      "outputs": [
        {
          "internalType": "address",
          "name": "",
          "type": "address"
        }
      ],
      "stateMutability": "view",
      "type": "function"
    },
    {
      "inputs": [],
      "name": "renounceOwnership",
      "outputs": [],
      "stateMutability": "nonpayable",
      "type": "function"
    },
    {
      "inputs": [],
      "name": "rewardToken",
      "outputs": [
        {
          "internalType": "contract IERC20",
          "name": "",
          "type": "address"
        }
      ],
      "stateMutability": "view",
      "type": "function"
    },
    {
      "inputs": [
        {
          "internalType": "address",
          "name": "_newSigner",
          "type": "address"
        }
      ],
      "name": "setAdminSigner",
      "outputs": [],
      "stateMutability": "nonpayable",
      "type": "function"
    },
    {
      "inputs": [
        {
          "internalType": "address",
          "name": "newOwner",
          "type": "address"
        }
      ],
      "name": "transferOwnership",
      "outputs": [],
      "stateMutability": "nonpayable",
      "type": "function"
    },
    {
      "inputs": [
        {
          "internalType": "bytes32",
          "name": "",
          "type": "bytes32"
        }
      ],
      "name": "usedNonces",
      "outputs": [
        {
          "internalType": "bool",
          "name": "",
          "type": "bool"
        }
      ],
      "stateMutability": "view",
      "type": "function"
    },
    {
      "inputs": [
        {
          "internalType": "address",
          "name": "to",
          "type": "address"
        },
        {
          "internalType": "uint256",
          "name": "amount",
          "type": "uint256"
        }
      ],
      "name": "withdrawTokens",
      "outputs": [],
      "stateMutability": "nonpayable",
      "type": "function"
    }
  ],
  "bytecode": "0x60a060405234801561001057600080fd5b50604051610e38380380610e3883398101604081905261002f916101f1565b806001600160a01b03811661005f57604051631e4fbdf760e01b8152600060048201526024015b60405180910390fd5b61006881610185565b50600180556001600160a01b0383166100c35760405162461bcd60e51b815260206004820152601460248201527f496e76616c69642061646d696e207369676e65720000000000000000000000006044820152606401610056565b6001600160a01b0382166101195760405162461bcd60e51b815260206004820152601460248201527f496e76616c69642072657761726420746f6b656e0000000000000000000000006044820152606401610056565b6001600160a01b03811661015f5760405162461bcd60e51b815260206004820152600d60248201526c24b73b30b634b21037bbb732b960991b6044820152606401610056565b50600280546001600160a01b0319166001600160a01b0393841617905516608052610234565b600080546001600160a01b038381166001600160a01b0319831681178455604051919092169283917f8be0079c531659141344cd1fd0a4f28419497f9722a3daafe3b4186f6b6457e09190a35050565b80516001600160a01b03811681146101ec57600080fd5b919050565b60008060006060848603121561020657600080fd5b61020f846101d5565b925061021d602085016101d5565b915061022b604085016101d5565b90509250925092565b608051610bdb61025d6000396000818161010a0152818161024701526105db0152610bdb6000f3fe608060405234801561001057600080fd5b50600436106100935760003560e01c8063f2fde38b11610066578063f2fde38b146100f2578063f7c618c114610105578063fcf6c9451461012c578063feb617241461013f578063ff9d2dcc1461017257600080fd5b806306b091f914610098578063183bbe80146100ad578063715018a6146100c05780638da5cb5b146100c8575b600080fd5b6100ab6100a63660046109a9565b610185565b005b6100ab6100bb3660046109d3565b6102fc565b6100ab6103a3565b6000546001600160a01b03165b6040516001600160a01b0390911681526020015b60405180910390f35b6100ab6101003660046109d3565b6103b7565b6100d57f000000000000000000000000000000000000000000000000000000000000000081565b6100ab61013a366004610a3e565b6103f5565b61016261014d366004610ac6565b60036020526000908152604090205460ff1681565b60405190151581526020016100e9565b6002546100d5906001600160a01b031681565b61018d6106e7565b6001600160a01b0382166101dc5760405162461bcd60e51b8152602060048201526011602482015270125b9d985b1a59081c9958da5c1a595b9d607a1b60448201526064015b60405180910390fd5b600081116102215760405162461bcd60e51b81526020600482015260126024820152710416d6f756e74206d757374206265203e20360741b60448201526064016101d3565b60405163a9059cbb60e01b81526001600160a01b038381166004830152602482018390527f0000000000000000000000000000000000000000000000000000000000000000169063a9059cbb906044016020604051808303816000875af1158015610290573d6000803e3d6000fd5b505050506040513d601f19601f820116820180604052508101906102b49190610adf565b6102f85760405162461bcd60e51b8152602060048201526015602482015274151bdad95b881d1c985b9cd9995c8819985a5b1959605a1b60448201526064016101d3565b5050565b6103046106e7565b6001600160a01b0381166103515760405162461bcd60e51b815260206004820152601460248201527324b73b30b634b21030b236b4b71039b4b3b732b960611b60448201526064016101d3565b600280546001600160a01b038381166001600160a01b0319831681179093556040519116919082907f6f90e3333b36a43e9473b1faf6286d9e81782ed8df1110323511fbbc67a1e61090600090a35050565b6103ab6106e7565b6103b56000610714565b565b6103bf6106e7565b6001600160a01b0381166103e957604051631e4fbdf760e01b8152600060048201526024016101d3565b6103f281610714565b50565b6103fd610764565b60008381526003602052604090205460ff16156104515760405162461bcd60e51b8152602060048201526012602482015271139bdb98d948185b1c9958591e481d5cd95960721b60448201526064016101d3565b600084116104995760405162461bcd60e51b8152602060048201526015602482015274125b9d985b1a59081c995dd85c9908185b5bdd5b9d605a1b60448201526064016101d3565b6000304633898989896040516020016104b89796959493929190610b01565b6040516020818303038152906040528051906020012090506000610509827f19457468657265756d205369676e6564204d6573736167653a0a3332000000006000908152601c91909152603c902090565b9050600061054d8286868080601f01602080910402602001604051908101604052809392919081815260200183838082843760009201919091525061078e92505050565b6002549091506001600160a01b0380831691161461059e5760405162461bcd60e51b815260206004820152600e60248201526d24b73b30b634b21039b4b3b732b960911b60448201526064016101d3565b60008681526003602052604090819020805460ff191660011790555163a9059cbb60e01b8152336004820152602481018890526001600160a01b037f0000000000000000000000000000000000000000000000000000000000000000169063a9059cbb906044016020604051808303816000875af1158015610624573d6000803e3d6000fd5b505050506040513d601f19601f820116820180604052508101906106489190610adf565b61068d5760405162461bcd60e51b815260206004820152601660248201527514995dd85c99081d1c985b9cd9995c8819985a5b195960521b60448201526064016101d3565b85336001600160a01b03167f50d0b0bcd5eb9eaef8f05b900bf5041b21941c690d65f5757a7f926e595812898b8b8b6040516106cb93929190610b56565b60405180910390a35050506106df60018055565b505050505050565b6000546001600160a01b031633146103b55760405163118cdaa760e01b81523360048201526024016101d3565b600080546001600160a01b038381166001600160a01b0319831681178455604051919092169283917f8be0079c531659141344cd1fd0a4f28419497f9722a3daafe3b4186f6b6457e09190a35050565b60026001540361078757604051633ee5aeb560e01b815260040160405180910390fd5b6002600155565b60008060008061079e86866107b8565b9250925092506107ae8282610805565b5090949350505050565b600080600083516041036107f25760208401516040850151606086015160001a6107e4888285856108be565b9550955095505050506107fe565b50508151600091506002905b9250925092565b600082600381111561081957610819610b8f565b03610822575050565b600182600381111561083657610836610b8f565b036108545760405163f645eedf60e01b815260040160405180910390fd5b600282600381111561086857610868610b8f565b036108895760405163fce698f760e01b8152600481018290526024016101d3565b600382600381111561089d5761089d610b8f565b036102f8576040516335e2f38360e21b8152600481018290526024016101d3565b600080807f7fffffffffffffffffffffffffffffff5d576e7357a4501ddfe92f46681b20a08411156108f95750600091506003905082610983565b604080516000808252602082018084528a905260ff891692820192909252606081018790526080810186905260019060a0016020604051602081039080840390855afa15801561094d573d6000803e3d6000fd5b5050604051601f1901519150506001600160a01b03811661097957506000925060019150829050610983565b9250600091508190505b9450945094915050565b80356001600160a01b03811681146109a457600080fd5b919050565b600080604083850312156109bc57600080fd5b6109c58361098d565b946020939093013593505050565b6000602082840312156109e557600080fd5b6109ee8261098d565b9392505050565b60008083601f840112610a0757600080fd5b50813567ffffffffffffffff811115610a1f57600080fd5b602083019150836020828501011115610a3757600080fd5b9250929050565b60008060008060008060808789031215610a5757600080fd5b863567ffffffffffffffff811115610a6e57600080fd5b610a7a89828a016109f5565b9097509550506020870135935060408701359250606087013567ffffffffffffffff811115610aa857600080fd5b610ab489828a016109f5565b979a9699509497509295939492505050565b600060208284031215610ad857600080fd5b5035919050565b600060208284031215610af157600080fd5b815180151581146109ee57600080fd5b6bffffffffffffffffffffffff198860601b1681528660148201526bffffffffffffffffffffffff198660601b1660348201528385604883013760489301928301919091526068820152608801949350505050565b604081528260408201528284606083013760006060848301015260006060601f19601f8601168301019050826020830152949350505050565b634e487b7160e01b600052602160045260246000fdfea2646970667358221220034f90715cfa4d745c3efa9637599b45345a9ce53342937c388c050d02a79de864736f6c634300081c0033",
  "linkReferences": {},
  "deployedLinkReferences": {}
}